:020000002529B0
:100006001E288312031324088316850034288312BE
:100016002408831686003428831224088316870052
:10002600342883122408831688003428831224086F
:10003600831689003428831203132308013A03190F
:1000460004282308023A03190A282308033A031945
:100056000F282308043A031914282308053A03191C
:04006600192808004D
:10006A00831203132508003A031D9C2887282408B5
:10007A00F1000130F000710803194728F00D7010E3
:10008A00FF3E4128F009700885059B282408F100E5
:10009A000130F000710803195628F00D7010FF3E68
:1000AA005028F009700886059B282408F1000130C1
:1000BA00F000710803196528F00D7010FF3E5F28E3
:1000CA00F009700887059B282408F1000130F00028
:1000DA00710803197428F00D7010FF3E6E28F0099C
:1000EA00700888059B282408F1000130F000710887
:1000FA0003198328F00D7010FF3E7D28F00970085F
:10010A0089059B282308013A03193C282308023A47
:10011A0003194B282308033A03195A282308043AD7
:10012A00031969282308053A03197828FB282508A2
:10013A00013A031DFB28E7282408F1000130F000EA
:10014A0071080319AC28F00D7010FF3EA62870083C
:10015A008504FB282408F1000130F0007108031916
:10016A00BA28F00D7010FF3EB42870088604FB28E8
:10017A002408F1000130F00071080319C828F00DB5
:10018A007010FF3EC22870088704FB282408F1007B
:10019A000130F00071080319D628F00D7010FF3EE7
:1001AA00D02870088804FB282408F1000130F000E8
:1001BA0071080319E428F00D7010FF3EDE2870085C
:1001CA008904FB282308013A0319A1282308023AC3
:1001DA000319AF282308033A0319BD282308043A50
:0E01EA000319CB282308053A0319D928080069
:1001F8000E29831203132408850024292408860065
:10020800242924088700242924088800242924086C
:1002180089002429831203132308013A0319FD28AE
:100228002308023A031902292308033A0319052966
:100238002308043A031908292308053A03190B2946
:020248000800AC
:10024A00043083120313A300A40103200430831291
:10025A000313A300A401FC20A20104302202031804
:10026A0055290430A3002208A4000130A500352036
:10027A000430A3002208073CA4000130A500352061
:10028A000630FB001330FC00AD30FD00FD0B4B299E
:10029A00FC0B4B29FB0B4B2900000000A20A322958
:1002AA000430A2002208073C031C78290430A3006A
:1002BA002208A400A50135200430A3002208073C27
:1002CA00A400A50135200630FB001330FC00AD3038
:1002DA00FD00FD0B6E29FC0B6E29FB0B6E2900003D
:0A02EA000000A20A572931297929E2
:02400E004A2F37
:00000001FF
