:02000000F22CE0
:100006001E28831603134B08831285003428831693
:100016004B0883128600342883164B088312870008
:10002600342883164B0883128800342883164B081D
:10003600831289003428831603134A08003A0319E9
:1000460004284A08013A03190A284A08023A0319F9
:100056000F284A08033A031914284A08043A0319D0
:04006600192808004D
:10006A00831603134C08003A031DA62890284B0850
:10007A00F1000130F000710803194728F00D7010E3
:10008A00FF3E4128F009700883128505A5288316CA
:10009A004B08F1000130F000710803195828F00DDF
:1000AA007010FF3E5228F009700883128605A528B1
:1000BA0083164B08F1000130F00071080319692812
:1000CA00F00D7010FF3E6328F0097008831287054F
:1000DA00A52883164B08F1000130F00071080319B6
:1000EA007A28F00D7010FF3E7428F0097008831208
:1000FA008805A52883164B08F1000130F000710825
:10010A0003198B28F00D7010FF3E8528F00970083E
:10011A0083128905A52883164A08003A03193C2840
:10012A004A08013A03194C284A08023A03195D2879
:10013A004A08033A03196E284A08043A03197F2821
:10014A00102983164C08013A031D1029FB284B0875
:10015A00F1000130F00071080319B728F00D701092
:10016A00FF3EB128700883128504102983164B08B4
:10017A00F1000130F00071080319C728F00D701062
:10018A00FF3EC128700883128604102983164B0883
:10019A00F1000130F00071080319D728F00D701032
:1001AA00FF3ED128700883128704102983164B0852
:1001BA00F1000130F00071080319E728F00D701002
:1001CA00FF3EE128700883128804102983164B0821
:1001DA00F1000130F00071080319F728F00D7010D2
:1001EA00FF3EF128700883128904102983164A08F1
:1001FA00003A0319AC284A08013A0319BB284A08ED
:10020A00023A0319CB284A08033A0319DB284A0899
:08021A00043A0319EB28080067
:100222002F298316031348088500452920298113A5
:10023200480886002529811748088600252948088C
:10024200FF3A031918291C2945294808870045291E
:100252004808880045294808890045298316031360
:100262004708003A031912294708013A03191729C6
:100272004708023A031926294708033A031929298C
:0A0282004708043A03192C2908006C
:10028C00AE29831603134808F10083120508F00009
:10029C00710803195529F00CF013FF3E4F29031375
:1002AC000130F00583164908840070088000C429C9
:1002BC004808F10083120608F000710803196A2936
:1002CC00F00CF013FF3E64290130F0058316490849
:1002DC00840070088000C4294808F10083120708C4
:1002EC00F000710803197E29F00CF013FF3E7829F9
:1002FC000130F00583164908840070088000C42979
:10030C004808F10083120808F000710803199229BB
:10031C00F00CF013FF3E8C290130F00583164908D0
:10032C00840070088000C4294808F1008312090871
:10033C00F00071080319A629F00CF013FF3EA02958
:10034C000130F00583164908840070088000C42928
:10035C00831603134708003A031947294708013A43
:10036C0003195E294708023A031972294708033A10
:0E037C00031986294708043A03199A29080034
:10038A00033083160313CA00F0304705CB0003205D
:10039A00033083160313CA00CB010130CC00352089
:1003AA00033083160313CA000130CB00CC01352079
:1003BA00033083160313CA000230CB000130CC008D
:1003CA0035200B3083120313FC006230FD00FD0B55
:1003DA00EC29FC0BEC29000003308316CA0002301A
:1003EA00CB00CC013520023083120313FC00083005
:1003FA00FD00FD0BFE29FC0BFE29000003308316CD
:10040A00CA004708CB00CB0D4B10CB0D4B10CB0DC0
:10041A004B10CB0D4B10F030CB0503200330831665
:10042A000313CA00CB010130CC00352003308316F8
:10043A000313CA000130CB00CC01352003308316E8
:10044A000313CA000230CB000130CC0035200B3038
:10045A0083120313FC006230FD00FD0B322AFC0BF1
:10046A00322A000003308316CA000230CB00CC01C6
:04047A003520080021
:10047E00033083160313CA00CB01CC0135200330A1
:10048E0083160313CA000130CB00CC013520033094
:10049E0083160313CA00F0304705CB000320033048
:1004AE0083160313CA000230CB000130CC00352076
:1004BE000B3083120313FC006230FD00FD0B652A26
:1004CE00FC0B652A000003308316CA000230CB00F5
:1004DE00CC013520023083120313FC000830FD00DE
:1004EE00FD0B772AFC0B772A000003308316CA0017
:1004FE004708CB00CB0D4B10CB0D4B10CB0D4B103B
:10050E00CB0D4B10F030CB050320033083160313B5
:10051E00CA000230CB000130CC0035200B308312E4
:10052E000313FC006230FD00FD0B9B2AFC0B9B2A83
:10053E00000003308316CA000230CB00CC013520F8
:02054E000800A3
:0E055000831203136C088A006B0882000800F7
:10055E00831603134908013A0319BA2A4908023AC5
:10056E000319BA2A2D2B182B4808F1000130F00080
:10057E0071080319C62AF00D7010FF3EC02A7008CC
:10058E0085042C2BE82A81134808F1000130F00075
:10059E0071080319D62AF00D7010FF3ED02A70088C
:1005AE008604ED2A81174808F1000130F000710829
:1005BE000319E52AF00D7010FF3EDF2A700886043D
:1005CE00ED2A4908023A0319CA2AD92A2C2B4808BF
:1005DE00F1000130F00071080319F92AF00D7010C6
:1005EE00FF3EF32A700887042C2B4808F1000130D7
:1005FE00F00071080319072BF00D7010FF3E012B50
:10060E00700888042C2B4808F1000130F0007108A6
:10061E000319152BF00D7010FF3E0F2B7008890477
:10062E002C2B4708003A0319BB2A4708013A031935
:10063E00C92A4708023A0319EE2A4708033A031952
:10064E00FC2A4708043A03190A2B912B4908003A51
:10065E00031D912B7D2B4808F1000130F00071082D
:10066E0003193D2BF00D7010FF3E372BF00970086B
:10067E008505912B4808F1000130F000710803192F
:10068E004C2BF00D7010FF3E462BF00970088605BE
:10069E00912B4808F1000130F000710803195B2B13
:1006AE00F00D7010FF3E552BF00970088705912B49
:1006BE004808F1000130F000710803196A2BF00DA3
:1006CE007010FF3E642BF00970088805912B4808C6
:1006DE00F1000130F00071080319792BF00D701044
:1006EE00FF3E732BF00970088905912B4708003ADD
:1006FE000319322B4708013A0319412B4708023AD6
:10070E000319502B4708033A03195F2B4708043A85
:06071E0003196E2B080018
:10072400831603132B0884000008003A0319A32B33
:100734002B0884000008C700C52183160313AB0AE5
:04074400922B0800EC
:1007480083160313AB013130AC003230AD003330C7
:10075800AE004130AF003430B0003530B100363033
:10076800B2004230B3003730B4003830B500393009
:10077800B6004330B7002A30B8003030B900233013
:10078800BA004430BB00BC01BD019430BE00BF01BB
:100798000130C0000230C1000330C2000430C30081
:1007A8000530C4000630C5000730C600BC0104305F
:1007B8003C020318382C0130CA003C08BF3E8400B4
:1007C8000008CB00CC01352083160313BD0104308B
:1007D8003D0203182A2C0130C7003D08C33E84009F
:1007E8000008C800BE30C90046213E08003A031D73
:1007F800282C3D08F000F00D7010F00D7010AC3092
:10080800F0073C08700784000008AB003E08003A77
:10081800031D192C0130C7003D08C33E84000008A1
:10082800C800BE30C90046210A2C0130CA003C0865
:10083800BF3E84000008CB000130CC003520831671
:1008480003132B08F0003A2CBD0AEB2B0130CA0029
:100858003C08BF3E84000008CB000130CC003520A6
:0E08680083160313BC0ADB2B2B08F0000800DC
:10087600033083160313C700C80111210330C700D4
:10088600C801C901AF220330C7000130C800C90141
:10089600AF220330C7000230C800C901AF22D030F2
:1008A600FC00C930FD00FD0B562CFC0B562C00003D
:1008B60000003330C7003F22323083160313C700CF
:1008C6003F222C3083160313C7003F224130831288
:1008D6000313FD00FD0B6D2C0C308316C7003F2261
:1008E600413083120313FD00FD0B772C0130831674
:1008F600C7003F220B3083120313FC006230FD0059
:0C090600FD0B832CFC0B832C0000080070
:1009120083160313AD012B08003A031D932C2C08F8
:10092200AD009A2C2B08013A031D9A2C2C08403E4C
:0C093200AD002D08803EC7003F220800E9
:10093E00013083160313C700C801C901AF2201306D
:10094E00C7000130C800C901AF220130C700023014
:10095E00C800C901AF220130C7000330C800C90169
:10096E00AF220130C7000430C8000230C900AF22E8
:10097E000130C7000530C8000230C900AF22013077
:10098E00C7000630C8000230C900AF220130C700D0
:0C099E000730C8000230C900AF2208007A
:1009AA00A8228A110A128000840AEB0A0319EC0AA7
:0809BA00F003031DD52C080019
:1009C200013083160313C7003F220B308312031337
:1009D200FC006230FD00FD0BEC2CFC0BEC2C00004B
:0209E20008000B
:1009E400D425313083160313A5003230A6003330EA
:1009F400A7003430A800A9018312EF01FF30831649
:100A0400AA00A4019F243B244B308316AB009223FD
:100A14008312EE0104306E0203183D2DA4237008E6
:100A24008312ED007008003A0319382D0230FB00E0
:100A3400A030FC009230FD00FD0B1E2DFC0B1E2D82
:100A4400FB0B1E2D00006E08A03E84006D08800084
:100A540001308316AB0083126E088316AC00892420
:100A64005C3083160313AB0092233A2D8312EE03FA
:100A74008312EE0A0C2DEE0104306E020318582D79
:100A84006E08A03E84000008F1006E08A53E8400B4
:100A9400710800060319522DFF308316AA00582D41
:100AA40083160130AA008312EE0A3E2D83162A080B
:100AB400013A031D632DE1245E308316AB009223BB
:100AC4006A2D8312EF0AE12420308316AB009223AF
:100AD400033083126F02031C7D2DE1242C30831616
:100AE400AB0092230130AB00AC0189243B30831668
:100AF4000313AB009223033083126F02031C0A2DED
:040B0400822D832D8E
:100BA800203084004B3083120313F0008930EB00AF
:080BB8000530EC00D524080013
:100B12005434723479342034613467346134693442
:080B22006E343A342034003433
:100B2A0054346F346F3420346D3461346E34793414
:0E0B3A002034743472346934653473340034FA
:100B4800543472347934203461346734613469340C
:100B58006E3420346C346134743465347234003447
:100B680045346E347434653472342034503461340E
:100B78007334733477346F34723464343A342034D1
:020B8800003437
:040B8A002A340034D5
:100B8E00573465346C3463346F346D3465342034CB
:0A0B9E0041346D34693472340034C0
:02400E004A2F37
:00000001FF
