:02000000FD2AD7
:10000600831203133C08003A031D6A2855283B084F
:10001600F1000130F000710803191528F00D701079
:10002600FF3E0F28F0097008850569283B08F10096
:100036000130F000710803192428F00D7010FF3EFE
:100046001E28F0097008860569283B08F100013072
:10005600F000710803193328F00D7010FF3E2D28AB
:10006600F0097008870569283B08F1000130F000A7
:10007600710803194228F00D7010FF3E3C28F00964
:100086007008880569283B08F1000130F000710806
:1000960003195128F00D7010FF3E4B28F009700827
:1000A600890569283A08003A03190A283A08013AE4
:1000B600031919283A08023A031928283A08033A74
:1000C600031937283A08043A03194628C9283C0870
:1000D600013A031DC928B5283B08F1000130F0009C
:1000E600710803197A28F00D7010FF3E7428700805
:1000F6008504C9283B08F1000130F0007108031996
:100106008828F00D7010FF3E822870088604C928E2
:100116003B08F1000130F000710803199628F00D34
:100126007010FF3E902870088704C9283B08F1002C
:100136000130F00071080319A428F00D7010FF3E7D
:100146009E2870088804C9283B08F1000130F00099
:1001560071080319B228F00D7010FF3EAC28700824
:100166008904C9283A08003A03196F283A08013A5F
:1001760003197D283A08023A03198B283A08033AEC
:0E018600031999283A08043A0319A72808001B
:10019400DC28831203133B088500F2283B08860001
:1001A400F2283B088700F2283B088800F2283B0825
:1001B4008900F228831203133A08003A0319CB2862
:1001C4003A08013A0319D0283A08023A0319D32805
:1001D4003A08033A0319D6283A08043A0319D928E5
:0201E400080011
:1001E600831203133908013A031D68295229380876
:1001F600F1000130F000710803190529F00D7010A7
:10020600FF3EFF2870088316850467291C2983167C
:10021600811783123808F1000130F00071080319C4
:100226001829F00D7010FF3E1229700883168604F7
:10023600222983123908023A03190A290C29831242
:100246003808F1000130F000710803192E29F00D6D
:100256007010FF3E282970088316870467298312C9
:100266003808F1000130F000710803193E29F00D3D
:100276007010FF3E38297008831688046729831298
:100286003808F1000130F000710803194E29F00D0D
:100296007010FF3E48297008831689046729831267
:1002A6003708003A0319FA283708013A03190929C9
:1002B6003708023A031922293708033A0319322963
:1002C6003708043A03194229D72983123908003A14
:1002D600031DD729C2293808F1000130F000710842
:1002E60003197929F00D7010FF3E7329F009700883
:1002F60083168505D72983123808F1000130F000EE
:10030600710803198A29F00D7010FF3E8429F0093F
:10031600700883168605D72983123808F100013044
:10032600F000710803199B29F00D7010FF3E952906
:10033600F009700883168705D72983123808F1005B
:100346000130F00071080319AC29F00D7010FF3E62
:10035600A629F009700883168805D729831238085C
:10036600F1000130F00071080319BD29F00D70107D
:10037600FF3EB729F009700883168905D72983122D
:100386003708003A03196E293708013A03197E29FE
:100396003708023A03198F293708033A0319A029A7
:0A03A6003708043A0319B1290800D2
:0E03B0008312031331088A003008820008000F
:1003BE00032A83120313380883168500192AEE299F
:1003CE00831681178312380883168600F429831248
:1003DE003808FF3A0319E729E929831238088316EA
:1003EE008700192A8312380883168800192A831267
:1003FE00380883168900192A831203133708003A26
:10040E000319E0293708013A0319E6293708023A99
:10041E000319F4293708033A0319F9293708043A5E
:06042E000319FE2908007D
:10043400013083120313BA00BB01BC010320013055
:10044400BA000130BB00BC0103200330BA003708F6
:10045400BB00CA200130BA000230BB000130BC002E
:1004640003200B30FC006230FD00FD0B372AFC0B2F
:10047400372A00000130BA000230BB00BC0103205F
:0204840008006E
:10048600013083120313BA00BB010130BC00032004
:100496000130BA000130BB00BC0103200330BA00B2
:1004A6003708BB00CA200130BA000230BB00013059
:1004B600BC0003200B30FC006230FD00FD0B612AFE
:1004C600FC0B612A00000130BA000230BB00BC01FF
:0404D60003200800F7
:1004DA00013083120313B7001A220B30FC0062307A
:0E04EA00FD00FD0B762AFC0B762A00000800B0
:1004F80083120313B6013408003A031D862A35080F
:10050800B6008D2A3408013A031D8D2A3508403E6D
:0C051800B6003608803EB7001A2208002A
:10052400033083120313B700B801DF2101308312B3
:100534000313B700B801B901F32001308312031388
:10054400B7000130B800B901F3200130831203135E
:10055400B7000230B800B901F320D030831203137E
:10056400FC00C930FD00FD0BB52AFC0BB52A0000C8
:1005740000003F30B7001A224130FD00FD0BC02AB5
:100584000C30B7001A224130FD00FD0BC72A0130A0
:10059400B7001A220B30FC006230FD00FD0BD02A9C
:0805A400FC0BD02A0000080046
:1005AC00831203133508B700B70D3710B70D37108A
:1005BC00B70D37104030B7071A22B6010830360293
:1005CC000318F02A3608340784000008B7004322C9
:0605DC00B60AE42A080043
:1005E200D8218A110A128000840AB00A0319B10ABA
:0805F200F003031DF12A0800CB
:1005FA000E3083120313A0000A30A1000E30A200AD
:10060A000530A3000E30A4001430A5000430A60063
:10061A000A30A7000E30A8000A30A9000E30AA003E
:10062A001430AB000E30AC000530AD000430AE0023
:10063A000A30AF002030B4000130B500D62228308D
:10064A00B4000230B500D6229222B2010C30B300B7
:10065A00B2010C30320203185D2B6D22B40132084C
:10066A00B5007C220130B70043220530FB000F3071
:10067A00FC00F130FD00FD0B402BFC0B402BFB0B6B
:10068A00402B6D22B401320AB5007C220230B70039
:10069A0043220530FB000F30FC00F130FD00FD0B5A
:1006AA00542BFC0B542BFB0B542B0230B2072E2B72
:1006BA000C30B3008030003AF0008030330670020C
:1006CA000318942B6D220130B4003308B5007C2244
:1006DA000130B70043220530FB000F30FC00F13037
:1006EA00FD00FD0B762BFC0B762BFB0B762B6D227C
:1006FA000130B4003303B5007C220230B700432234
:10070A000530FB000F30FC00F130FD00FD0B8B2B98
:10071A00FC0B8B2BFB0B8B2B0230B3025F2B2A2B90
:02072A00952B0D
:02400E004A2F37
:00000001FF
