:020000006F2B64
:10000600831203133C08003A031D6A2855283B084F
:10001600F1000130F000710803191528F00D701079
:10002600FF3E0F28F0097008850569283B08F10096
:100036000130F000710803192428F00D7010FF3EFE
:100046001E28F0097008860569283B08F100013072
:10005600F000710803193328F00D7010FF3E2D28AB
:10006600F0097008870569283B08F1000130F000A7
:10007600710803194228F00D7010FF3E3C28F00964
:100086007008880569283B08F1000130F000710806
:1000960003195128F00D7010FF3E4B28F009700827
:1000A600890569283A08003A03190A283A08013AE4
:1000B600031919283A08023A031928283A08033A74
:1000C600031937283A08043A03194628C9283C0870
:1000D600013A031DC928B5283B08F1000130F0009C
:1000E600710803197A28F00D7010FF3E7428700805
:1000F6008504C9283B08F1000130F0007108031996
:100106008828F00D7010FF3E822870088604C928E2
:100116003B08F1000130F000710803199628F00D34
:100126007010FF3E902870088704C9283B08F1002C
:100136000130F00071080319A428F00D7010FF3E7D
:100146009E2870088804C9283B08F1000130F00099
:1001560071080319B228F00D7010FF3EAC28700824
:100166008904C9283A08003A03196F283A08013A5F
:1001760003197D283A08023A03198B283A08033AEC
:0E018600031999283A08043A0319A72808001B
:10019400DC28831203133B088500F2283B08860001
:1001A400F2283B088700F2283B088800F2283B0825
:1001B4008900F228831203133A08003A0319CB2862
:1001C4003A08013A0319D0283A08023A0319D32805
:1001D4003A08033A0319D6283A08043A0319D928E5
:0201E400080011
:1001E600013083120313BA00F0303705BB00CA2072
:1001F6000130BA00BB010130BC0003200130BA0057
:100206000130BB00BC0103200130BA000230BB0044
:100216000130BC0003200B30FC006230FD00FD0BFA
:100226001229FC0B122900000130BA000230BB0073
:10023600BC0103200230FC000830FD00FD0B212923
:10024600FC0B212900000130BA003708BB00BB0DAA
:100256003B10BB0D3B10BB0D3B10BB0D3B10F030F4
:10026600BB05CA200130BA00BB010130BC00032027
:100276000130BA000130BB00BC0103200130BA00D6
:100286000230BB000130BC0003200B30FC006230A2
:10029600FD00FD0B4C29FC0B4C2900000130BA0077
:0A02A6000230BB00BC010320080079
:0E02B0008312031331088A0030088200080010
:1002BE00831203133908013A031DD529BF293808C3
:1002CE00F1000130F000710803197129F00D701062
:1002DE00FF3E6B29700883168504D429882983165E
:1002EE00811783123808F1000130F00071080319EC
:1002FE008429F00D7010FF3E7E2970088316860447
:10030E008E2983123908023A031976297829D429BD
:10031E0083123808F1000130F000710803199B298F
:10032E00F00D7010FF3E9529700883168704D429AE
:10033E0083123808F1000130F00071080319AB295F
:10034E00F00D7010FF3EA529700883168804D4297D
:10035E0083123808F1000130F00071080319BB292F
:10036E00F00D7010FF3EB529700883168904D4294C
:10037E0083123708003A031966293708013A031920
:10038E0075293708023A03198F293708033A0319DA
:10039E009F293708043A0319AF29442A83123908D2
:1003AE00003A031D442A2F2A3808F1000130F000CC
:1003BE0071080319E629F00D7010FF3EE029F009CF
:1003CE00700883168505442A83123808F10001301F
:1003DE00F00071080319F729F00D7010FF3EF12996
:1003EE00F009700883168605442A83123808F10036
:1003FE000130F00071080319082AF00D7010FF3E4D
:10040E00022AF009700883168705442A83123808D9
:10041E00F1000130F00071080319192AF00D701067
:10042E00FF3E132AF009700883168805442A8312AA
:10043E003808F1000130F000710803192A2AF00D76
:10044E007010FF3E242AF009700883168905442A8D
:10045E0083123708003A0319DB293708013A0319CA
:10046E00EB293708023A0319FC293708033A031916
:0C047E000D2A3708043A03191E2A080052
:10048A006A2A83120313380883168500802A542A9D
:10049A008316811783123808831686005A2A831214
:1004AA003808FF3A03194D2A4F2A802A831238083E
:1004BA0083168700802A8312380883168800802AC8
:1004CA008312380883168900802A83120313370897
:1004DA00003A0319462A3708013A03194C2A370801
:1004EA00023A03195B2A3708033A0319602A3708C4
:0804FA00043A0319652A080009
:10050200013083120313BA00BB01BC010320013086
:10051200BA000130BB00BC0103200130BA00F03048
:100522003705BB00CA200130BA000230BB000130DF
:10053200BC0003200B30FC006230FD00FD0B9F2A43
:10054200FC0B9F2A00000130BA000230BB00BC0144
:1005520003200230FC000830FD00FD0BAE2AFC0B2C
:10056200AE2A00000130BA003708BB00BB0D3B10B9
:10057200BB0D3B10BB0D3B10BB0D3B10F030BB0560
:10058200CA200130BA000230BB000130BC00032097
:100592000B30FC006230FD00FD0BCD2AFC0BCD2A96
:1005A20000000130BA000230BB00BC010320080089
:1005B200831203133508B700B70D3710B70D371084
:1005C200B70D37104030B7078122B6010830360226
:1005D2000318F32A3608340784000008B700F32012
:0605E200B60AE72A08003A
:1005E800013083120313B70081220B30FC00623004
:0E05F800FD00FD0BFD2AFC0BFD2A0000080093
:10060600013083120313B700B8014522013083126B
:100616000313B700B801B9015F2101308312031338
:10062600B7000130B800B9015F210130831203130E
:10063600B7000230B800B9015F21D030831203132E
:10064600FC00C930FD00FD0B262BFC0B262B000001
:1006560000003330B70081223230B70081222C30BF
:10066600B70081224130FD00FD0B372B0C30B7005F
:1006760081224130FD00FD0B3E2B0130B700812267
:100686000B30FC006230FD00FD0B472BFC0B472BAB
:040696000000080058
:10069A0083120313B6013408003A031D572B350899
:1006AA00B6005E2B3408013A031D5E2B3508403E26
:0C06BA00B6003608803EB7008122080020
:1006C60058218A110A128000840AB00A0319B10A55
:0806D600F003031D632B080073
:1006DE000E3083120313A0000A30A1000E30A200C8
:1006EE000530A3000E30A4001430A5000430A6007F
:1006FE000A30A7000E30A8000A30A9000E30AA005A
:10070E001430AB000E30AC000530AD000430AE003E
:10071E000A30AF0003232030B4000130B500D922D7
:10072E002830B4000230B500D9220130B700B8012C
:10073E00452283120313B2010C30B300B2010F3005
:10074E0032020318D72BF422B4013208B5004D2320
:10075E000130B700F3200730FB001730FC006A3081
:10076E00FD00FD0BB82BFC0BB82BFB0BB82B0000C0
:10077E00F422B401320AB5004D230230B700F32043
:10078E000730FB001730FC006A30FD00FD0BCD2B4F
:10079E00FC0BCD2BFB0BCD2B00000230B207A62B92
:1007AE000F30B3008030003AF00080303306700214
:1007BE000318102CF4220130B4003308B5004D2379
:1007CE000130B700F3200730FB001730FC006A3011
:1007DE00FD00FD0BF02BFC0BF02BFB0BF02B0000A8
:1007EE00F4220130B4003303B5004D230230B700BC
:1007FE00F3200730FB001730FC006A30FD00FD0BC4
:10080E00062CFC0B062CFB0B062C00000230B30250
:06081E00D92BA02B112CC8
:02400E004A2F37
:00000001FF
