:020000008E2B45
:10000600831203133C08003A031D6A2855283B084F
:10001600F1000130F000710803191528F00D701079
:10002600FF3E0F28F0097008850569283B08F10096
:100036000130F000710803192428F00D7010FF3EFE
:100046001E28F0097008860569283B08F100013072
:10005600F000710803193328F00D7010FF3E2D28AB
:10006600F0097008870569283B08F1000130F000A7
:10007600710803194228F00D7010FF3E3C28F00964
:100086007008880569283B08F1000130F000710806
:1000960003195128F00D7010FF3E4B28F009700827
:1000A600890569283A08003A03190A283A08013AE4
:1000B600031919283A08023A031928283A08033A74
:1000C600031937283A08043A03194628C9283C0870
:1000D600013A031DC928B5283B08F1000130F0009C
:1000E600710803197A28F00D7010FF3E7428700805
:1000F6008504C9283B08F1000130F0007108031996
:100106008828F00D7010FF3E822870088604C928E2
:100116003B08F1000130F000710803199628F00D34
:100126007010FF3E902870088704C9283B08F1002C
:100136000130F00071080319A428F00D7010FF3E7D
:100146009E2870088804C9283B08F1000130F00099
:1001560071080319B228F00D7010FF3EAC28700824
:100166008904C9283A08003A03196F283A08013A5F
:1001760003197D283A08023A03198B283A08033AEC
:0E018600031999283A08043A0319A72808001B
:10019400DC28831203133B088500F2283B08860001
:1001A400F2283B088700F2283B088800F2283B0825
:1001B4008900F228831203133A08003A0319CB2862
:1001C4003A08013A0319D0283A08023A0319D32805
:1001D4003A08033A0319D6283A08043A0319D928E5
:0201E400080011
:1001E600013083120313BA00F0303705BB00CA2072
:1001F6000130BA00BB010130BC0003200130BA0057
:100206000130BB00BC0103200130BA000230BB0044
:100216000130BC0003200B30FC006230FD00FD0BFA
:100226001229FC0B122900000130BA000230BB0073
:10023600BC0103200230FC000830FD00FD0B212923
:10024600FC0B212900000130BA003708BB00BB0DAA
:100256003B10BB0D3B10BB0D3B10BB0D3B10F030F4
:10026600BB05CA200130BA00BB010130BC00032027
:100276000130BA000130BB00BC0103200130BA00D6
:100286000230BB000130BC0003200B30FC006230A2
:10029600FD00FD0B4C29FC0B4C2900000130BA0077
:0A02A6000230BB00BC010320080079
:0E02B0008312031331088A0030088200080010
:1002BE00831203133908013A031DEB29D529380897
:1002CE00F1000130F000710803197129F00D701062
:1002DE00FF3E6B29700883168504EA299E29831632
:1002EE00811383123808F1000130F00071080319F0
:1002FE008429F00D7010FF3E7E297008831681044C
:10030E0070088604A42983123808F0000130F10029
:10031E00700803199629F10D7110FF3E902971098D
:10032E00F00070088316810571088604A4298312D3
:10033E003908023A031976298A29EA2983123808DC
:10034E00F1000130F00071080319B129F00D7010A1
:10035E00FF3EAB29700883168704EA2983123808FA
:10036E00F1000130F00071080319C129F00D701071
:10037E00FF3EBB29700883168804EA2983123808C9
:10038E00F1000130F00071080319D129F00D701041
:10039E00FF3ECB29700883168904EA298312370899
:1003AE00003A031966293708013A031975293708E7
:1003BE00023A0319A5293708033A0319B529370854
:1003CE00043A0319C5295A2A83123908003A031D23
:1003DE005A2A452A3808F1000130F0007108031935
:1003EE00FC29F00D7010FF3EF629F00970088316F7
:1003FE0085055A2A83123808F1000130F000710881
:10040E0003190D2AF00D7010FF3E072AF00970082F
:10041E00831686055A2A83123808F1000130F0003F
:10042E00710803191E2AF00D7010FF3E182AF009EC
:10043E007008831687055A2A83123808F100013096
:10044E00F000710803192F2AF00D7010FF3E292AB3
:10045E00F0097008831688055A2A83123808F100AD
:10046E000130F00071080319402AF00D7010FF3EA4
:10047E003A2AF0097008831689055A2A831237081A
:10048E00003A0319F1293708013A0319012A3708EE
:10049E00023A0319122A3708033A0319232A370896
:0804AE00043A0319342A080086
:1004B600892A831203133808831685009F2A732A14
:1004C60083168113FF308100831238088316860055
:1004D600792A831681018312380883168600792AC1
:1004E60083123808FF3A0319632A6C2A9F2A83125B
:1004F6003808831687009F2A8312380883168800D7
:100506009F2A83123808831689009F2A83120313B1
:100516003708003A03195C2A3708013A0319622A98
:100526003708023A03197A2A3708033A03197F2A49
:0A0536003708043A0319842A08006C
:10054000013083120313BA00BB01BC010320013048
:10055000BA000130BB00BC0103200130BA00F0300A
:100560003705BB00CA200130BA000230BB000130A1
:10057000BC0003200B30FC006230FD00FD0BBE2AE6
:10058000FC0BBE2A00000130BA000230BB00BC01E7
:1005900003200230FC000830FD00FD0BCD2AFC0BCF
:1005A000CD2A00000130BA003708BB00BB0D3B105C
:1005B000BB0D3B10BB0D3B10BB0D3B10F030BB0522
:1005C000CA200130BA000230BB000130BC00032059
:1005D0000B30FC006230FD00FD0BEC2AFC0BEC2A1A
:1005E00000000130BA000230BB00BC01032008004B
:1005F000831203133508B700B70D3710B70D371046
:10060000B70D37104030B707A022B60108303602C8
:100610000318122B3608340784000008B700F320B3
:06062000B60A062B0800DB
:10062600013083120313B700A0220B30FC006230A6
:0E063600FD00FD0B1C2BFC0B1C2B0000080014
:10064400013083120313B700B8015B220130831217
:100654000313B700B801B9015F21013083120313FA
:10066400B7000130B800B9015F21013083120313D0
:10067400B7000230B800B9015F21D03083120313F0
:10068400FC00C930FD00FD0B452BFC0B452B000085
:1006940000003330B700A0223230B700A0222C3043
:1006A400B700A0224130FD00FD0B562B0C30B700E3
:1006B400A0224130FD00FD0B5D2B0130B700A022CC
:1006C4000B30FC006230FD00FD0B662BFC0B662B2F
:0406D400000008001A
:1006D80083120313B6013408003A031D762B35083C
:1006E800B6007D2B3408013A031D7D2B3508403EAA
:0C06F800B6003608803EB700A0220800C3
:1007040058218A110A128000840AB00A0319B10A16
:08071400F003031D822B080015
:10071C000E3083120313A0000A30A1000E30A20089
:10072C000530A3000E30A4001430A5000430A60040
:10073C000A30A7000E30A8000A30A9000E30AA001B
:10074C001430AB000E30AC000530AD000430AE0000
:10075C000A30AF0022232030B4000130B500F8225B
:10076C002830B4000230B500F8220130B700B801CF
:10077C005B2283120313B2010C30B300B2010F30B1
:10078C0032020318F62B1323B4013208B5006C2384
:10079C000130B700F3200730FB001730FC006A3043
:1007AC00FD00FD0BD72BFC0BD72BFB0BD72B000025
:1007BC001323B401320AB5006C230230B700F320C6
:1007CC000730FB001730FC006A30FD00FD0BEC2BF2
:1007DC00FC0BEC2BFB0BEC2B00000230B207C52BF7
:1007EC000F30B3008030003AF000803033067002D6
:1007FC0003182F2C13230130B4003308B5006C23DD
:10080C000130B700F3200730FB001730FC006A30D2
:10081C00FD00FD0B0F2CFC0B0F2CFB0B0F2C000009
:10082C0013230130B4003303B5006C230230B7003E
:10083C00F3200730FB001730FC006A30FD00FD0B85
:10084C00252CFC0B252CFB0B252C00000230B302B5
:06085C00F82BBF2B302C2D
:02400E004A2F37
:00000001FF
