:020000003B2B98
:10000800FF00030E8301AE000A08AB008A017008E6
:10001800A4007108A3007B08A2007C08A1007D0849
:10002800A0000B08F000F00CF01301307005F1008F
:100038007108013A031D60280B08F000F00CF0135A
:10004800F00CF013F00CF013F00CF0130130700505
:10005800F1007108013A031D60280730FB001730D2
:10006800FC006A30FD00FD0B3728FC0B3728FB0B22
:10007800372800008B102508F1002608F200270811
:10008800F3002808F4000030F0007406031D562819
:1000980070087306031D562870087206031D56283B
:1000A8007108003A03195F282508AC002608AD003E
:1000B800FB228A110A129D280B0883120313F000F1
:1000C80001307005F1007108013A031D9D280B08E5
:1000D800F000F00CF013F00CF013F00CF0130130FA
:1000E8007005F1007108013A031D9D280B102808BE
:1000F800F1002908F2002A08F3002B08F400003068
:10010800F0007406031D922870087306031D9228D8
:1001180070087206031D92287108003A03199D2879
:10012800831203132808AC002908AD00FB228A11AA
:100138000A12831203132408F0002308F10022088E
:10014800FB002108FC002008FD002B088A002E0E69
:080158008300FF0E7F0E090079
:10016000C2288312031334088500D8283408860077
:10017000D82834088700D82834088800D8283408BC
:100180008900D828831203133308003A0319B128D1
:100190003308013A0319B6283308023A0319B9287B
:1001A0003308033A0319BC283308043A0319BF285B
:0201B000080045
:0E01B200831203132D088A002C088200080017
:1001C000831203133108013A0319EB283108023A6C
:1001D0000319EB286D2957293008F1000130F00090
:1001E00071080319F728F00D7010FF3EF128700810
:1001F000831685046C292029831681138312300805
:10020000F1000130F000710803190A29F00D701097
:10021000FF3E042970088316860426298316811759
:1002200083123008F1000130F000710803191C2915
:10023000F00D7010FF3E16297008831686042629DB
:1002400083123108023A0319FC280E296C29831203
:100250003008F1000130F000710803193329F00D66
:100260007010FF3E2D297008831687046C298312B5
:100270003008F1000130F000710803194329F00D36
:100280007010FF3E3D297008831688046C29831284
:100290003008F1000130F000710803195329F00D06
:1002A0007010FF3E4D297008831689046C29831253
:1002B0002F08003A0319EC282F08013A0319FB28EC
:1002C0002F08023A031927292F08033A031937295F
:1002D0002F08043A03194729DC2983123108003A10
:1002E000031DDC29C7293008F1000130F000710836
:1002F00003197E29F00D7010FF3E7829F00970086F
:1003000083168505DC2983123008F1000130F000E6
:10031000710803198F29F00D7010FF3E8929F0092B
:10032000700883168605DC2983123008F10001303D
:10033000F00071080319A029F00D7010FF3E9A29F2
:10034000F009700883168705DC2983123008F10054
:100350000130F00071080319B129F00D7010FF3E53
:10036000AB29F009700883168805DC298312300850
:10037000F1000130F00071080319C229F00D70106E
:10038000FF3EBC29F009700883168905DC29831219
:100390002F08003A031973292F08013A03198329FA
:1003A0002F08023A031994292F08033A0319A529A3
:0A03B0002F08043A0319B6290800CB
:1003BA00092A831203133008831685001F2AF3299A
:1003CA00831681138312300883168600F92983164F
:1003DA0081178312300883168600F92983123008A0
:1003EA00FF3A0319E529EC291F2A831230088316DC
:1003FA0087001F2A83123008831688001F2A831257
:10040A003008831689001F2A831203132F08003A23
:10041A000319DE292F08013A0319E4292F08023AA1
:10042A000319FA292F08033A0319FF292F08043A56
:06043A000319042A08006A
:040440008B1708000E
:080444008316031301130800E5
:04044C000B16080083
:10045000831203133108003A031D8F2A7A2A3008C9
:10046000F1000130F000710803193A2AF00D701004
:10047000FF3E342AF009700885058E2A3008F10005
:100480000130F00071080319492AF00D7010FF3E89
:10049000432AF009700886058E2A3008F1000130E1
:1004A000F00071080319582AF00D7010FF3E522A0F
:1004B000F009700887058E2A3008F1000130F0003D
:1004C00071080319672AF00D7010FF3E612AF009C8
:1004D000700888058E2A3008F1000130F00071089C
:1004E0000319762AF00D7010FF3E702AF00970088B
:1004F00089058E2A2F08003A03192F2A2F08013A5E
:1005000003193E2A2F08023A03194D2A2F08033AED
:1005100003195C2A2F08043A03196B2AEE2A3108C2
:10052000013A031DEE2ADA2A3008F1000130F0000A
:10053000710803199F2AF00D7010FF3E992A700868
:100540008504EE2A3008F1000130F000710803192B
:10055000AD2AF00D7010FF3EA72A70088604EE2A1F
:100560003008F1000130F00071080319BB2AF00DCA
:100570007010FF3EB52A70088704EE2A3008F1009B
:100580000130F00071080319C92AF00D7010FF3E08
:10059000C32A70088804EE2A3008F1000130F00008
:1005A00071080319D72AF00D7010FF3ED12A700888
:1005B0008904EE2A2F08003A0319942A2F08013AD9
:1005C0000319A22A2F08023A0319B02A2F08033A66
:0E05D0000319BE2A2F08043A0319CC2A08008A
:1005DE00D9208A110A128000840AAC0A0319AD0AC6
:0805EE00F003031DEF2A0800D1
:0E05F600831203132D088A002C0882000800CF
:10060400831203132F08A5003008A6003108A700A1
:0406140032080800A0
:1006180083120313B2010330320203183A2B03305A
:10062800B300FF30B400B0200630FB001330FC00EC
:10063800AD30FD00FD0B1E2BFC0B1E2BFB0B1E2BE8
:10064800000000000330B300B401B0200630FB0006
:100658001330FC00AD30FD00FD0B302BFC0B302BB4
:0E066800FB0B302B00000000B20A0F2B080025
:10067600E223013083120313AF00B0010230B10050
:10068600E020033083120313AF00B001DD21831293
:10069600031388012022222226220C308312AF0067
:1006A6000330B0000030B100003002230330AF0049
:1006B6000630B0000130B10028220630FB001330AE
:1006C600FC00AD30FD00FD0B662BFC0B662BFB0B17
:1006D600662B000000000330AF000630B000B10109
:1006E60028220630FB001330FC00AD30FD00FD0B68
:1006F6007A2BFC0B7A2BFB0B7A2B000000000330C5
:10070600AF000530B0000130B10028220630FB00F2
:100716001330FC00AD30FD00FD0B8F2BFC0B8F2B37
:10072600FB0B8F2B000000000330AF000530B0003C
:10073600B10128220630FB001330FC00AD30FD006D
:10074600FD0BA32BFC0BA32BFB0BA32B0000000024
:100756000330AF000430B0000130B100282206306B
:10076600FB001330FC00AD30FD00FD0BB82BFC0B7D
:10077600B82BFB0BB82B000000000330AF00043091
:10078600B000B10128220630FB001330FC00AD306A
:10079600FD00FD0BCC2BFC0BCC2BFB0BCC2B00005C
:0607A6000000592BD52BC9
:1007C40025308400063083120313F000DB30AC00C4
:0807D4000330AD00EF22080024
:0607B600003400340034A1
:0607BC000034003400349B
:02400E004A2F37
:00000001FF
