:02000000932843
:10000600152883120313260885002B282608860048
:100016002B28260887002B28260888002B28260848
:1000260089002B28831203132508003A0319042894
:100036002508013A031909282508023A03190C284C
:100046002508033A03190F282508043A031912282C
:020056000800A0
:0E0058008312031321088A002008820008008A
:100066005728831203132608831685006D28422815
:100076008316811783122608831686004828831262
:100086002608FF3A03193B283D28831226088316C3
:1000960087006D2883122608831688006D28831230
:1000A6002608831689006D28831203132508003A53
:1000B600031934282508013A03193A282508023A73
:1000C600031948282508033A03194D282508043A38
:0600D60003195228080086
:1000DC000030831203132402031879280A302402F7
:1000EC00031C79288B282308A5002408183EF0004F
:1000FC0001300318013EF1007008A0007108A10046
:0C010C002C208A110A12A6000320080013
:0E011800831203132308A500A601332008005C
:1001260083120313A2010330A3008C20831203134E
:10013600A2012208083C031CB4280330A3002208AD
:10014600A4006E201530FB004B30FC00BE30FD00D5
:10015600FD0BAB28FC0BAB28FB0BAB280000A20A5F
:100166009C280330A5004030A60003200530FB0084
:100176000F30FC00F130FD00FD0BBF28FC0BBF2843
:10018600FB0BBF280330A5006030A6000320053016
:10019600FB000F30FC00F130FD00FD0BD028FC0BFE
:1001A600D028FB0BD0280330A5006130A600032021
:1001B6000530FB000F30FC00F130FD00FD0BE1289F
:1001C600FC0BE128FB0BE1280330A5006330A600F9
:1001D60003200530FB000F30FC00F130FD00FD0B65
:1001E600F228FC0BF228FB0BF2280330A50067303F
:1001F600A60003200530FB000F30FC00F130FD00A7
:10020600FD0B0329FC0B0329FB0B03291530FB000F
:100216004B30FC00BE30FD00FD0B0F29FC0B0F29F7
:0A022600FB0B0F290000992817298F
:100230003F3406345B344F3466346D347D340734D8
:040240007F346F3464
:02400E004A2F37
:00000001FF
